:020000000C945E
:1000020085000C9400000C9400000C9400000C94E9
:1000120000000C9400000C9400000C9400000C945E
:1000220000000C9400000C9400000C9400000C944E
:1000320000000C9400000C9400000C9400000C943E
:1000420000000C9400000C94B5000C9400000C9479
:10005200D4000C9400000C9400000C9400000C944A
:1000620000000C9400000C9400000C9400000C940E
:1000720000000C9400000C9400000C9400000C94FE
:1000820000000C9400000C9400001027E8036400A8
:100092000A00010000100001100001000000000031
:1000A20000000000000064006572722C25643B00B1
:1000B2006164632C25643B002C00434F4E4E454344
:1000C20054004F4646007468726573686F6C640032
:1000D20001002D4E414E00494E4600000100020033
:1000E2009E0008000400A00001002C05A8000800E2
:1000F2000005BC0004000805C4000A000C05C80085
:1001020001006405D2000000F894EE27ECBBF1E098
:10011200F5BFE5BFE0936C008DE0A2E0BB27ED9355
:100122008A95E9F780E090E1A0E0B1E0ED930197D4
:10013200E9F7EEEDF0E085919591009761F0A591D8
:10014200B59105901590BF01F00105900D920197B0
:10015200E1F7FB01F0CF8BBFEFEFEDBFE0E1EEBFC8
:10016200C0E0D5E00C94EB00EA93FA93EFB7EA9380
:100172001A930A931BB10CB1E12FEC7189F4E42DAF
:100182004394F0E0EA5EFA4F0083E8E0E41509F4F4
:1001920044246394E8E0E61519F46624689420F890
:1001A2000991199112C0EA93FA93EFB7EA93BB202F
:1001B20061F0BA94E82D8394F0E0E25EFA4FE081B8
:1001C200ECB9E8E0E81509F48824E991EFBFF99168
:1001D200E9911895E0E8EABBE0E0EBBBE7BBE8BBDE
:1001E200EBEAE4BBE0E0E5BBE1BBE2BBE2B9E3B9C9
:1001F200E0936100E0936200E0936400E0936500A5
:10020200E0BFE3BFE2BFE1BFEFBDEEBDEDBDECBDC0
:10021200E7BDE6BDEBBDEABDE9BDE8BDE09379000F
:10022200E0937800E5BDE4BDE3BDE0938B00E0938D
:100232008A00E0938900E0938800E0938100E093D4
:100242008000E0938700E0938600E0938500E093CE
:100252008400E0938300E0938200E7BFE0937D0097
:10026200E0936A00EABFE9BFEBB9E8EDEAB9E6E07C
:10027200E0939500E0E0E0939000E3E3E9B9E0E089
:10028200E0939A00E0E8E8B9E0E0E7B9E3E8E6B92C
:10029200E0E0E0BDEDB9E09374007894FFCFFFCFCA
:00000001FF
