:0C0000000C9491000C9400000C94000083
:10000C000C9400000C9400000C9400000C94000064
:10001C000C9400000C9400000C9400000C94000054
:10002C000C9400000C9400000C9400000C94000044
:10003C000C9400000C94C1000C9400000C94000073
:10004C000C9400000C9400000C9400000C94000024
:10005C000C9400000C9400000C9400000C94000014
:10006C000C9400000C9400000C9400000C94000004
:10007C000C9400000C9400000C9400000C940000F4
:10008C001027E80364000A000100001000011000B2
:10009C0001000000726561647900640001000100D8
:1000AC006572722C25643B006164632C25643B00F3
:1000BC002C00434F4E4E454354004F464600746847
:1000CC00726573686F6C64006761730001002D4E7C
:1000DC00414E00494E460000010005009E000600FE
:1000EC000005A00001002005A60001002205A800C3
:1000FC0001002405AA0008000605BE0004000E0538
:10010C00C6000A001205CA0004001C05D400010038
:10011C005D05D8000000F894EE27ECBBF1E0F5BFCC
:10012C00E5BFE0936C008DE0A2E0BB27ED938A95D0
:10013C00E9F780E090E1A0E0B1E0ED930197E9F7F9
:10014C00E4EEF0E085919591009761F0A591B59161
:10015C0005901590BF01F00105900D920197E1F704
:10016C00FB01F0CF8BBFEFEFEDBFE0E1EEBFC0E0E6
:10017C00D5E00C94ED000A921A92FA926A937A9353
:10018C008A939A93AA93BA93EA93FA93EFB7EA9362
:10019C00A2D0F0D0B5D1E991EFBFF991E991B99125
:1001AC00A9919991899179916991F99019900990F6
:1001BC001895AA93E881E7B98BE18A95F1F7369AFD
:1001CC00349BFECF349AE4B1F5B10C943A04E29727
:1001DC00E0E8EABBE0E0EBBBE7BBE8BBEBEAE4BB87
:1001EC00E0E0E5BBE1BBE2BBE2B9E3B9E09361005F
:1001FC00E0936200E0936400E0936500E0BFE6E00A
:10020C00E3BFE0E0E2BFE1BFEFBDEEBDEDBDECBD95
:10021C00E7BDE6BDEBBDEABDE9BDE8BDE093790005
:10022C00E0937800E5BDE4BDE3BDE0938B00E09383
:10023C008A00E0938900E0938800E0938100E093CA
:10024C008000E0938700E0938600E0938500E093C4
:10025C008400E0938300E0938200E1E0E7BFE0E0FC
:10026C00E0937D00E0936A00EABFE9BFEBB9E8E1F7
:10027C00EAB9E6E0E0939500E0E0E0939000E3E378
:10028C00E9B9E0E0E0939A00E0E8E8B9E0E0E7B92A
:10029C00E3E8E6B9E0E0E0BDEDB9E09374007894F2
:1002AC00A0E0B5E049D0A898A998AB9AAD9AAF9ABE
:1002BC00A4EFB1E00E94A706AB98AD98AF985AD0C6
:1002CC00DE0169D1DE0138D0DE01DED1FE010E94F3
:1002DC002F06F6CFFFCFF50131965F01E4E6F0E093
:1002EC00EA15FB0570F4AA24BB24A1E062DFA4EF9D
:1002FC00B1E00E94BE06DF01EFEFF3E00E94C606FC
:10030C006F01C99902C0CB9B04C0E4E05E2E79D189
:10031C0012C0CD9904C0E1E05E2E73D10CC0E09107
:10032C002005F0912105CE16DF0624F0E3E05E2EC9
:10033C0068D101C0552408950E943706AA81BB815B
:10034C000E94AA031E2F00E0011750F4AA81BB8162
:10035C00EE27A00FBE1FAC910E9435040F5FF4CFA7
:10036C00ADE00E943504AAE00E9435041981088191
:10037C000C94ED03A2E2B5E00E943C060E944206FA
:10038C00A031E7E2BE0728F0E0E0E0932205E0931D
:10039C002305E52DF0E0309719F4AD9AAF985BC0CA
:1003AC00E130A0E0FA0771F40E94470651F4AD9BCE
:1003BC0002C0AD9801C0AD9AAD9902C0AF9801C012
:1003CC00AF9A49C0E230A0E0FA0771F40E944706E8
:1003DC0051F4AD9B02C0AD9801C0AD9AAD9B02C06B
:1003EC00AF9801C0AF9A37C0E330A0E0FA0751F4E0
:1003FC000E94470629F4AD9B02C0AD9801C0AD9A8E
:10040C00AF9829C0E430A0E0FA0751F40E944706E7
:10041C0029F4AF9B02C0AF9801C0AF9AAD981BC036
:10042C00E530A0E0FA0751F40E94470629F4AF9B8F
:10043C0002C0AF9801C0AF9AAD9A0DC0E630A0E0F3
:10044C00FA0719F4AF9AAD9806C0E730A0E0FA07A6
:10045C0011F4AF9AAD9A552041F00E944206E4E6A1
:10046C00F0E00E94D906309709F006C00E944E06B3
:10047C000E945106A9980BC0552021F4A0915A0551
:10048C00A03009F406C00E944E060E9451065092FC
:10049C005A05A4E2B5E00E943C060E946706A03112
:1004AC00E7E2BE0728F0E0E0E0932405E0932505A1
:1004BC00E42DF0E0E130A0E0FA0771F40E94670649
:1004CC00E8E2F0E00E94D906309729F4DF9B02C0E5
:1004DC00DF9801C0DF9A13C0E230A0E0FA0771F494
:1004EC000E946706E4E1F0E00E94D906309729F4F7
:1004FC00DF9B02C0DF9801C0DF9A01C0DF9808952E
:10050C00F30131963F01E0E5F0E06E167F0630F026
:10051C00A0912605B0912705119709F01CC06624FF
:10052C007724A0E046DE4F010E944E06E8E2F5E09B
:10053C00FA93EA93E4EBF0E0FA93EA93F4010E9465
:10054C00B9060E94E40684E00E94A8052896A8E259
:10055C00B5E0F2DE1FC0E4EFF1E06E167F0630F07E
:10056C00A0912605B0912705129709F00CC0A89A06
:10057C00A998AB9A66247724E1E0F0E0E093260595
:10058C00F093270507C0E4EFF1E06E167F0610F03C
:10059C00662477240895BA93AA930E94F20600E089
:1005AC0010E00E9431043E2F3B3321F00233E0E097
:1005BC001E070CF00CC0F801AC81BD81EA0FFB1FCB
:1005CC0030830F5F1F4F0E9431043E2F01C001C0CA
:1005DC00EBCF0F5F1F4FF801AC81BD81AE0FBF1F7A
:1005EC00E0E0EC930E94F9060C942F046624772427
:1005FC00A898A99AE2E0F0E0E0932605F09327058D
:10060C00089566247724A998A898AB98E0E0E09325
:10061C002605E09327050895BA93AA930E94F20643
:10062C000E811F812C813D81D801AC910E9427063F
:10063C00EF93D9012F5F3F4FAC910E942706AF91EA
:10064C00EA1751F4D8010F5F1F4FEC91E03019F409
:10065C00E0E0F0E015C0E8CFD801AC910E9427068D
:10066C00F0E0FF93EF93F90131979F01A0810E9475
:10067C002706F0E0AF91BF910E94E906EA1BFB0B45
:10068C000E94F906289608950E943706EA81FB819C
:10069C000E946C061A930A93A6E0B5E0BDDF309772
:1006AC0011F4A4DF3DC01A930A93AEE0B5E0B4DFB9
:1006BC00309711F4A6DF34C01A930A93A2E1B5E087
:1006CC00ABDF3097A9F4E1E0F0E0E0932205F09382
:1006DC002305E0E0F0E00E946C06002E012A39F0C0
:1006EC00D8010E94DC05E0932005F093210518C089
:1006FC001A930A93ACE1B5E08FDF309789F4E1E00F
:10070C00F0E0E0932405F0932505E0E0F0E00E9492
:10071C006C06002E012A21F0D8010E94DC054E2E19
:10072C00198108810C94ED03BA93AA93B981A8811D
:10073C00109631F0FC81EB816A8161931197E9F796
:10074C00EB81FC810C947204BA93AA93A991B99190
:10075C00EE27FF276D91662311F03196FBCF08959C
:10076C00BA93AA93AA27BB27E991F9910590002087
:10077C0011F01196FBCFFD010895BA93AA93BB819A
:10078C00AA816C91662361F0F981E881C8950020FB
:10079C0029F031966015D1F7FD0104C01196F1CF07
:1007AC00EE27FF270C94ED03BA93AA93BB81AA8181
:1007BC00882799276D91662349F0F981E881059086
:1007CC00002021F06015D9F70196F4CFFC01249696
:1007DC0008950E943706EC81FD81309779F4E09101
:1007EC005B05F0915C05309719F4E0E0F0E02FC068
:1007FC00E0915B05F0915C05EC83FD830E9474062F
:10080C000E94DA03AC81BD81EA0FFB1FEC83FD83F0
:10081C00AC81BD81EC91E03041F4E0E0E0935B050C
:10082C00E0935C05E0E0F0E012C00E9474060E94C8
:10083C00C3038F01309729F0D8010F5F1F4FE0E001
:10084C00EC9300935B0510935C05EC81FD811981A1
:10085C000881269608955F9BFECFECB10895AA936C
:10086C005D9BFECFE881ECB9219608950E94370676
:10087C00AA81BB8112960E94DC06309729F1AA81CD
:10088C00BB8114960E94DC068F01309761F0023018
:10089C00E0E01E0780F0F80131978F01AA81BB813F
:1008AC001496ED93FC93AA81BB8112960E943C0690
:1008BC003197AC81A083AA81BB810E94DC06FF2307
:1008CC0012F00E943C0606C0AA81BB81EFEFFFEF3D
:1008DC00ED93FC931981088125960895BA93AA93F8
:1008EC0026970E94F00610E0AC85BD85E0E0F0E0B4
:1008FC00ED93FC93EA89FB893196EA8BFB8B31975C
:10090C00E4912E2FE03009F415C1E12FE03039F4D9
:10091C00253211F411E002C00E947B060AC1E130BD
:10092C00A9F4253219F40E947B0602C112E040E0C2
:10093C0000E02D3211F401E0FCC02B3211F44BE23B
:10094C00F8C0203211F440E2F4C002C0E23039F4B5
:10095C0050E013E0203311F40068EBC003C0E33027
:10096C0009F0E7C0203310F02A3308F007C0AAE0E2
:10097C005A9F502DE22FE0535E0FDBC0E22FE3367F
:10098C0049F40E948206E889F989A481AA930E94FD
:10099C008806CEC0E33741F40E9482060E948E0680
:1009AC000E94AA031E2F0AC0E03761F40E9482063F
:1009BC000E948E060E94B6031E2F086002600F77FD
:1009CC0030E034C0E43611F0E93611F4046002C0B2
:1009DC00E53731F4ECE8F0E0EE83FF8315E00CC072
:1009EC00E83511F4086003C0E83709F0A1C0E6E966
:1009FC00F0E0EE83FF8314E002FF14C00E94820635
:100A0C000E949806AB85AA233AF4EA85FB850E94DE
:100A1C00B506EA87FB874DE2403011F01F5F01C03D
:100A2C000B7F04C00E9482060E94980600FD11C034
:100A3C00151778F407FF08C002FF04C00B7F242FA2
:100A4C00115001C020E301C020E20E947B065150EE
:100A5C00EFCF312F01FF17C03030A1F003FF06C0DC
:100A6C00EE81FF812591EE83FF8305C0AE81BF81AE
:100A7C002D91AE83BF830E947B06503009F05150FC
:100A8C003150EACF4BC020E3EE81FF810E94E0069B
:100A9C00E887F987EE81FF813296EE83FF83E88544
:100AAC00F985AA85BB85AE17BF0750F02F5FA885C7
:100ABC00B985EA85FB85EA1BFB0BEA87FB87EFCF41
:100ACC002A3328F003FF02C0295F01C0295D04FD11
:100ADC001AC0213320F4A885B985119709F409C0EF
:100AEC00531710F000FF01C013C020E207FF0BC02A
:100AFC0020E3006102FF07C00B7F4A930E94880627
:100B0C00503009F051500E947B06503009F0515082
:100B1C003150A885B985129708F0B5CF00FF08C0F1
:100B2C00503031F05150E0E2EA930E948806F8CF41
:100B3C0010E0E0CEAC85BD850E94DC060E94F70675
:100B4C0064960895FF92F82E26970E94F2060E9452
:100B5C00A006309719F4EFEFFFEF23C0DE011696D5
:100B6C000E94B1068D010E94A006EE83FF83E0E097
:100B7C00E887E987DE011A960E94B1060E94DC061E
:100B8C00FA93EA931A930A93ECE3F4E0FA93EA9358
:100B9C00DE011A96A3DE9F01AE81BF81E0E0EC93EB
:100BAC00F9010E94F9062A96FF900895BA93AA9328
:100BBC00B981A881EC918A2FAE2F0E941C06A82F18
:100BCC00EE2311F01196F6CFE894EC91ED3211F47E
:100BDC00689402C0EB3209F4119666277727EC91E2
:100BEC008A2FAE2F0E941306A82FEE2379F0FB015B
:100BFC00660F771F660F771F6E0F7F1F660F771FAD
:100C0C00ED91FF27E0536E0F7F1FE9CFFB011EF420
:100C1C00E095F095319622960895AA93E1E0F9912A
:100C2C00F03310F0FA3308F0EE270895AA93E1E0C0
:100C3C00F991F03229F0F93010F0FE3008F0EE277F
:100C4C000895AA93E991E13418F0EB3508F4E05ECD
:100C5C000895FA93EA93E0E0EA93A2E3B0E00C94EF
:100C6C009A03BA93AA931A930A930895ED91FD915E
:100C7C003196FE93EE930895A0912205B091230531
:100C8C000895FADFE8E2F0E00E94D9063097089563
:100C9C00E8E2F5E0DECFE8E2F5E0FA93EA93ECEA7D
:100CAC00F0E0FA93EA93E52DFF27662777270E9459
:100CBC00E40684E00E94A8052896A8E2B5E00C940E
:100CCC00A201A0912405B09125050895FA93EA9309
:100CDC00ACEBB0E00E94EF038F010895EC81FD8135
:100CEC00FA93EA93AC81BD8108952A93AD85BE85B4
:100CFC00EF85F88909950895E889F9893497E88B87
:100D0C00F98B0895AD85BE85EF85F8890995089511
:100D1C00A889B98914960E94DC06EE83FF83AE8104
:100D2C00BF810895A889B98914960E94DC06EA87C8
:100D3C00FB870895DE011C960E94B1060E94DC061A
:100D4C000895109639F080ED97E00197F1F7A8958A
:100D5C001197C9F708950024AF0DB01D0895F195B2
:100D6C00E195F04008956F2F660F660B762F08956E
:100D7C00FA9FF02DEB9FF00DEA9FE02DF10D0895F9
:100D8C000024112490E1AA0FBB1F001C111C0E1A89
:100D9C001F0A18F40E0E1F1E01C0A1609A9599F738
:100DAC00FD01D0010895ECDFFD010895ED91FC915A
:100DBC00119708950590F491E02D08957A936A9314
:100DCC00FA93EA9308951B2EBF2FF12D1A2EAE2FF6
:100DDC00E12D08955A934A933A932A931A930A93BE
:100DEC0008955D814C813B812A8119810881089588
:00000001FF
