:0E0000000C9484000C9400000C9400000C94EE
:10000E0000000C9400000C9400000C9400000C9462
:10001E0000000C9400000C9400000C9400000C9452
:10002E0000000C9400000C9400000C9400000C9442
:10003E0000000C94B4000C9400000C9400000C947E
:10004E0000000C9400000C9400000C9400000C9422
:10005E0000000C9400000C9400000C9400000C9412
:10006E0000000C9400000C9400000C9400000C9402
:10007E0000000C9400000C9400000C94000010275B
:10008E00E80364000A0001000010000110000100E6
:10009E00000072656164790064006572722C2564DB
:1000AE003B006164632C25643B002C00434F4E4E95
:1000BE00454354004F4646007468726573686F6C12
:1000CE00640001002D4E414E00494E4600000100D5
:1000DE0005009E0006000005A00001001C05A600FC
:1000EE0008000605BA0004000E05C2000A0012053B
:1000FE00C60001005705D0000000F894EE27ECBBB7
:10010E00F1E0F5BFE5BFE0936C008DE0A2E0BB2708
:10011E00ED938A95E9F780E090E1A0E0B1E0ED93F0
:10012E000197E9F7ECEDF0E085919591009761F07C
:10013E00A591B59105901590BF01F00105900D9216
:10014E000197E1F7FB01F0CF8BBFEFEFEDBFE0E1E1
:10015E00EEBFC0E0D5E00C94E0000A921A92FA923B
:10016E006A937A938A939A93AA93BA93EA93FA9399
:10017E00EFB7EA93A2D0F0D084D1E991EFBFF99115
:10018E00E991B991A9919991899179916991F99092
:10019E00199009901895AA93E881E7B98BE18A9591
:1001AE00F1F7369A349BFECF349AE4B1F5B10C9444
:1001BE00E803E297E0E8EABBE0E0EBBBE7BBE8BBB5
:1001CE00EBEAE4BBE0E0E5BBE1BBE2BBE2B9E3B9DD
:1001DE00E0936100E0936200E0936400E0936500B9
:1001EE00E0BFE6E0E3BFE0E0E2BFE1BFEFBDEEBDA2
:1001FE00EDBDECBDE7BDE6BDEBBDEABDE9BDE8BDBD
:10020E00E0937900E0937800E5BDE4BDE3BDE093B3
:10021E008B00E0938A00E0938900E0938800E093DE
:10022E008100E0938000E0938700E0938600E093E6
:10023E008500E0938400E0938300E0938200E1E088
:10024E00E7BFE0E0E0937D00E0936A00EABFE9BF1C
:10025E00EBB9E8E1EAB9E6E0E0939500E0E0E0937F
:10026E009000E3E3E9B9E0E0E0939A00E0E8E8B952
:10027E00E0E0E7B9E3E8E6B9E0E0E0BDEDB9E09330
:10028E0074007894A0E0B5E049D0A898A998AB9AEC
:10029E00AD9AAF9AA4EFB1E00E945006AB98AD981C
:1002AE00AF985AD0DE0138D1DE0138D0DE01ADD1A3
:1002BE00FE010E94DD05F6CFFFCFF50131965F01FD
:1002CE00E4E6F0E0EA15FB0570F4AA24BB24A1E0F5
:1002DE0062DFA4EFB1E00E946706DF01EFEFF3E00B
:1002EE000E946F066F01C99902C0CB9B04C0E4E067
:1002FE005E2E48D112C0CD9904C0E1E05E2E42D1EF
:10030E000CC0E0911C05F0911D05CE16DF0624F001
:10031E00E3E05E2E37D101C0552408950E94E50515
:10032E00AA81BB810E9458031E2F00E0011750F4D2
:10033E00AA81BB81EE27A00FBE1FAC910E94E303E2
:10034E000F5FF4CFADE00E94E303AAE00E94E30347
:10035E00198108810C949B03AEE1B5E00E94EA0579
:10036E000E94F005A031E7E2BE0728F0E0E0E0933E
:10037E001E05E0931F05E52DF0E0309719F4AD9AB8
:10038E00AF985BC0E130A0E0FA0771F40E94F5056A
:10039E0051F4AD9B02C0AD9801C0AD9AAD9902C0AB
:1003AE00AF9801C0AF9A49C0E230A0E0FA0771F4ED
:1003BE000E94F50551F4AD9B02C0AD9801C0AD9AF7
:1003CE00AD9B02C0AF9801C0AF9A37C0E330A0E03A
:1003DE00FA0751F40E94F50529F4AD9B02C0AD98C1
:1003EE0001C0AD9AAF9829C0E430A0E0FA0751F4ED
:1003FE000E94F50529F4AF9B02C0AF9801C0AF9AD9
:10040E00AD981BC0E530A0E0FA0751F40E94F50547
:10041E0029F4AF9B02C0AF9801C0AF9AAD9A0DC040
:10042E00E630A0E0FA0719F4AF9AAD9806C0E730AF
:10043E00A0E0FA0711F4AF9AAD9A552041F00E9450
:10044E00F005E4E6F0E00E948206309709F006C05F
:10045E000E94FC050E94FF05A9980BC0552021F4AF
:10046E00A0915405A03009F406C00E94FC050E941C
:10047E00FF0550925405AF9902C0DF9801C0DF9A74
:10048E000895F30131963F01E0E5F0E06E167F0628
:10049E0030F0A0912005B0912105119709F01CC0F4
:1004AE0066247724A0E077DE4F010E94FC05E2E28D
:1004BE00F5E0FA93EA93E0EBF0E0FA93EA93F401B5
:1004CE000E9462060E948D0684E00E9456052896C0
:1004DE00A2E2B5E023DF1FC0E4EFF1E06E167F0667
:1004EE0030F0A0912005B0912105129709F00CC0B3
:1004FE00A89AA998AB9A66247724E1E0F0E0E093FD
:10050E002005F093210507C0E4EFF1E06E167F069B
:10051E0010F0662477240895BA93AA930E949B063E
:10052E0000E010E00E94DF033E2F3B3321F0023348
:10053E00E0E01E070CF00CC0F801AC81BD81EA0FA3
:10054E00FB1F30830F5F1F4F0E94DF033E2F01C042
:10055E0001C0EBCF0F5F1F4FF801AC81BD81AE0F15
:10056E00BF1FE0E0EC930E94A2060C94DD0366240C
:10057E007724A898A99AE2E0F0E0E0932005F093A2
:10058E002105089566247724A998A898AB98E0E0F1
:10059E00E0932005E09321050895BA93AA930E9453
:1005AE009B060E811F812C813D81D801AC910E944A
:1005BE00D505EF93D9012F5F3F4FAC910E94D50522
:1005CE00AF91EA1751F4D8010F5F1F4FEC91E03055
:1005DE0019F4E0E0F0E015C0E8CFD801AC910E942C
:1005EE00D505F0E0FF93EF93F90131979F01A081BC
:1005FE000E94D505F0E0AF91BF910E949206EA1BD2
:10060E00FB0B0E94A206289608950E94E505EA813A
:10061E00FB810E9415061A930A93A6E0B5E0BDDF92
:10062E00309711F4A4DF29C01A930A93AEE0B5E017
:10063E00B4DF309711F4A6DF20C01A930A93A2E11B
:10064E00B5E0ABDF3097C9F4E1E0F0E0E0931E05D2
:10065E00F0931F05E0E0F0E00E941506002E012A3F
:10066E0061F0D8010E948A05E0931C05F0931D05E8
:10067E000E94FC05A2E2B5E051DE198108810C94BE
:10068E009B03BA93AA93B981A881109631F0FC818D
:10069E00EB816A8161931197E9F7EB81FC810C94F0
:1006AE002004BA93AA93A991B991EE27FF276D91D1
:1006BE00662311F03196FBCF0895BA93AA93AA2719
:1006CE00BB27E991F9910590002011F01196FBCF0F
:1006DE00FD010895BA93AA93BB81AA816C916623FA
:1006EE0061F0F981E881C895002029F031966015F6
:1006FE00D1F7FD0104C01196F1CFEE27FF270C9420
:10070E009B03BA93AA93BB81AA81882799276D91DF
:10071E00662349F0F981E8810590002021F06015EB
:10072E00D9F70196F4CFFC01249608950E94E505B1
:10073E00EC81FD81309779F4E0915505F0915605E5
:10074E00309719F4E0E0F0E02FC0E0915505F091FC
:10075E005605EC83FD830E941D060E948803AC8122
:10076E00BD81EA0FFB1FEC83FD83AC81BD81EC9153
:10077E00E03041F4E0E0E0935505E0935605E0E00B
:10078E00F0E012C00E941D060E9471038F01309787
:10079E0029F0D8010F5F1F4FE0E0EC930093550551
:1007AE0010935605EC81FD811981088126960895D6
:1007BE005F9BFECFECB10895AA935D9BFECFE881BF
:1007CE00ECB9219608950E94E505AA81BB81129687
:1007DE000E948506309729F1AA81BB8114960E944A
:1007EE0085068F01309761F00230E0E01E0780F041
:1007FE00F80131978F01AA81BB811496ED93FC937A
:10080E00AA81BB8112960E94EA053197AC81A08322
:10081E00AA81BB810E948506FF2312F00E94EA0581
:10082E0006C0AA81BB81EFEFFFEFED93FC93198118
:10083E00088125960895BA93AA9326970E94990641
:10084E0010E0AC85BD85E0E0F0E0ED93FC93EA8925
:10085E00FB893196EA8BFB8B3197E4912E2FE0309A
:10086E0009F415C1E12FE03039F4253211F411E00D
:10087E0002C00E9424060AC1E130A9F4253219F4FF
:10088E000E94240602C112E040E000E02D3211F475
:10089E0001E0FCC02B3211F44BE2F8C0203211F40F
:1008AE0040E2F4C002C0E23039F450E013E02033ED
:1008BE0011F40068EBC003C0E33009F0E7C0203349
:1008CE0010F02A3308F007C0AAE05A9F502DE22FED
:1008DE00E0535E0FDBC0E22FE33649F40E942B0695
:1008EE00E889F989A481AA930E943106CEC0E33724
:1008FE0041F40E942B060E9437060E9458031E2FB9
:10090E000AC0E03761F40E942B060E9437060E944F
:10091E0064031E2F086002600F7730E034C0E436A7
:10092E0011F0E93611F4046002C0E53731F4ECE859
:10093E00F0E0EE83FF8315E00CC0E83511F408609B
:10094E0003C0E83709F0A1C0E6E9F0E0EE83FF83CB
:10095E0014E002FF14C00E942B060E944106AB85D4
:10096E00AA233AF4EA85FB850E945E06EA87FB8796
:10097E004DE2403011F01F5F01C00B7F04C00E949A
:10098E002B060E94410600FD11C0151778F407FFD3
:10099E0008C002FF04C00B7F242F115001C020E3BA
:1009AE0001C020E20E9424065150EFCF312F01FFEB
:1009BE0017C03030A1F003FF06C0EE81FF812591F4
:1009CE00EE83FF8305C0AE81BF812D91AE83BF83C1
:1009DE000E942406503009F051503150EACF4BC0DE
:1009EE0020E3EE81FF810E948906E887F987EE8178
:1009FE00FF813296EE83FF83E885F985AA85BB8554
:100A0E00AE17BF0750F02F5FA885B985EA85FB8525
:100A1E00EA1BFB0BEA87FB87EFCF2A3328F003FF95
:100A2E0002C0295F01C0295D04FD1AC0213320F4E4
:100A3E00A885B985119709F409C0531710F000FF66
:100A4E0001C013C020E207FF0BC020E3006102FFCC
:100A5E0007C00B7F4A930E943106503009F0515067
:100A6E000E942406503009F051503150A885B985A6
:100A7E00129708F0B5CF00FF08C0503031F051503A
:100A8E00E0E2EA930E943106F8CF10E0E0CEAC85AA
:100A9E00BD850E9485060E94A00664960895FF9269
:100AAE00F82E26970E949B060E944906309719F44D
:100ABE00EFEFFFEF23C0DE0116960E945A068D015E
:100ACE000E944906EE83FF83E0E0E887E987DE01B6
:100ADE001A960E945A060E948506FA93EA931A9372
:100AEE000A93EAEEF3E0FA93EA93DE011A96A3DE96
:100AFE009F01AE81BF81E0E0EC93F9010E94A20656
:100B0E002A96FF900895BA93AA93B981A881EC9181
:100B1E008A2FAE2F0E94CA05A82FEE2311F0119630
:100B2E00F6CFE894EC91ED3211F4689402C0EB32FA
:100B3E0009F4119666277727EC918A2FAE2F0E9423
:100B4E00C105A82FEE2379F0FB01660F771F660F04
:100B5E00771F6E0F7F1F660F771FED91FF27E053F4
:100B6E006E0F7F1FE9CFFB011EF4E095F0953196D5
:100B7E0022960895AA93E1E0F991F03310F0FA333A
:100B8E0008F0EE270895AA93E1E0F991F03229F0EA
:100B9E00F93010F0FE3008F0EE270895AA93E9918F
:100BAE00E13418F0EB3508F4E05E0895FA93EA9319
:100BBE00E0E0EA93A2E3B0E00C944803BA93AA9360
:100BCE001A930A930895ED91FD913196FE93EE934B
:100BDE000895A0911E05B0911F050895FADFE8E271
:100BEE00F0E00E94820630970895E2E2F5E0DECF53
:100BFE00E2E2F5E0FA93EA93E8EAF0E0FA93EA9398
:100C0E00E52DFF27662777270E948D0684E00E9438
:100C1E0056052896A2E2B5E00C949501FA93EA9354
:100C2E00A8EBB0E00E949D038F010895EC81FD8139
:100C3E00FA93EA93AC81BD8108952A93AD85BE8562
:100C4E00EF85F88909950895E889F9893497E88B35
:100C5E00F98B0895AD85BE85EF85F88909950895C0
:100C6E00A889B98914960E948506EE83FF83AE810A
:100C7E00BF810895A889B98914960E948506EA87CE
:100C8E00FB870895DE011C960E945A060E94850677
:100C9E000895109639F080ED97E00197F1F7A89539
:100CAE001197C9F708950024AF0DB01D0895F19561
:100CBE00E195F04008956F2F660F660B762F08951D
:100CCE00FA9FF02DEB9FF00DEA9FE02DF10D0895A8
:100CDE000024112490E1AA0FBB1F001C111C0E1A38
:100CEE001F0A18F40E0E1F1E01C0A1609A9599F7E7
:100CFE00FD01D0010895ECDFFD010895ED91FC9109
:100D0E00119708950590F491E02D08957A936A93C2
:100D1E00FA93EA9308951B2EBF2FF12D1A2EAE2FA4
:100D2E00E12D08955A934A933A932A931A930A936C
:100D3E0008955D814C813B812A8119810881089536
:00000001FF
